3202301020000015100195514960781753****3153AFONSO PEREIRAADEGA PEREIRA     
4202301020000014100199550980912123****7687PRISCILA COSTALOJAS MÁGICO DE OZ
3202301020000014400348637540783777****1313JOSÉ ALENCAR FSUPERMERCADO ARAUJ
2202301020000012200195514960784648****0099AFONSO PEREIRAADEGA PEREIRA     
1202301020000013100195514960785234****7890AFONSO PEREIRAADEGA PEREIRA     
2202301020000011400348637540786723****9987JOSÉ ALENCAR FSUPERMERCADO ARAUJ
2202301020000042600348637540787473****1231JOSÉ ALENCAR FSUPERMERCADO ARAUJ
3202301020000062300232702980568777****1313CARLOS HENRIQUPADARIA 3 CORAÇÕES
1202301020000022200199550980919234****3324PRISCILA COSTALOJAS MÁGICO DE OZ
4202301020000083200348637540781123****7687JOSÉ ALENCAR FSUPERMERCADO ARAUJ
2202301020000011400232702980562473****1231CARLOS HENRIQUPADARIA 3 CORAÇÕES
3202301020000611500232702980563777****1313CARLOS HENRIQUPADARIA 3 CORAÇÕES
4202301020000012432199550980914234****6678PRISCILA COSTALOJAS MÁGICO DE OZ
2202301020000015103348637540785344****1222JOSÉ ALENCAR FSUPERMERCADO ARAUJ
3202301020000012500232702980566777****1313CARLOS HENRIQUPADARIA 3 CORAÇÕES
1202301020000011600199550980917228****9090PRISCILA COSTALOJAS MÁGICO DE OZ
4202070300000503573486375407818342****2231JOSÉ ALENCAR FSUPERMERCADO ARAUJ
2202301020000015200232702980569723****9987CARLOS HENRIQUPADARIA 3 CORAÇÕES
2202301020000001500348637540781344****1222JOSÉ ALENCAR FSUPERMERCADO ARAUJ
2202301020000002600232702980562677****8778CARLOS HENRIQUPADARIA 3 CORAÇÕES
3202301020000011500348637540783777****1313JOSÉ ALENCAR FSUPERMERCADO ARAUJ